{
  "_format": "hh-sol-artifact-1",
  "contractName": "Account",
  "sourceName": "contracts/account.sol",
  "abi": [
    {
      "inputs": [],
      "stateMutability": "nonpayable",
      "type": "constructor"
    },
    {
      "anonymous": false,
      "inputs": [
        {
          "indexed": true,
          "internalType": "string",
          "name": "coin",
          "type": "string"
        },
        {
          "indexed": true,
          "internalType": "string",
          "name": "email",
          "type": "string"
        }
      ],
      "name": "bought",
      "type": "event"
    },
    {
      "anonymous": false,
      "inputs": [
        {
          "indexed": true,
          "internalType": "string",
          "name": "coin",
          "type": "string"
        },
        {
          "indexed": true,
          "internalType": "string",
          "name": "email",
          "type": "string"
        }
      ],
      "name": "sold",
      "type": "event"
    },
    {
      "anonymous": false,
      "inputs": [
        {
          "indexed": true,
          "internalType": "string",
          "name": "email",
          "type": "string"
        }
      ],
      "name": "userCreated",
      "type": "event"
    },
    {
      "inputs": [
        {
          "internalType": "string",
          "name": "fromEmail",
          "type": "string"
        },
        {
          "internalType": "uint256",
          "name": "amount",
          "type": "uint256"
        },
        {
          "internalType": "string",
          "name": "coin",
          "type": "string"
        },
        {
          "internalType": "uint256",
          "name": "noofcoin",
          "type": "uint256"
        }
      ],
      "name": "buy",
      "outputs": [],
      "stateMutability": "payable",
      "type": "function"
    },
    {
      "inputs": [
        {
          "internalType": "string",
          "name": "name",
          "type": "string"
        },
        {
          "internalType": "string",
          "name": "email",
          "type": "string"
        }
      ],
      "name": "createUser",
      "outputs": [],
      "stateMutability": "nonpayable",
      "type": "function"
    },
    {
      "inputs": [
        {
          "internalType": "string",
          "name": "email",
          "type": "string"
        },
        {
          "internalType": "uint256",
          "name": "balance",
          "type": "uint256"
        }
      ],
      "name": "deposit",
      "outputs": [],
      "stateMutability": "nonpayable",
      "type": "function"
    },
    {
      "inputs": [
        {
          "internalType": "string",
          "name": "email",
          "type": "string"
        }
      ],
      "name": "getBalance",
      "outputs": [
        {
          "internalType": "uint256",
          "name": "",
          "type": "uint256"
        }
      ],
      "stateMutability": "view",
      "type": "function"
    },
    {
      "inputs": [
        {
          "internalType": "string",
          "name": "email",
          "type": "string"
        }
      ],
      "name": "getCoins",
      "outputs": [
        {
          "internalType": "string[]",
          "name": "",
          "type": "string[]"
        },
        {
          "internalType": "uint256[]",
          "name": "",
          "type": "uint256[]"
        }
      ],
      "stateMutability": "view",
      "type": "function"
    },
    {
      "inputs": [
        {
          "internalType": "string",
          "name": "fromEmail",
          "type": "string"
        },
        {
          "internalType": "string",
          "name": "coin",
          "type": "string"
        },
        {
          "internalType": "uint256",
          "name": "noofcoin",
          "type": "uint256"
        },
        {
          "internalType": "uint256",
          "name": "amount",
          "type": "uint256"
        }
      ],
      "name": "sell",
      "outputs": [],
      "stateMutability": "payable",
      "type": "function"
    },
    {
      "inputs": [
        {
          "internalType": "string",
          "name": "email",
          "type": "string"
        },
        {
          "internalType": "uint256",
          "name": "balance",
          "type": "uint256"
        }
      ],
      "name": "withdraw",
      "outputs": [],
      "stateMutability": "nonpayable",
      "type": "function"
    }
  ],
  "bytecode": "0x60806040526040518060400160405280601581526020017f6861636b62726f6b65727340676d61696c2e636f6d0000000000000000000000815250600390816200004a919062000731565b503480156200005857600080fd5b50600160008190555033600260006101000a81548173ffffffffffffffffffffffffffffffffffffffff021916908373ffffffffffffffffffffffffffffffffffffffff1602179055506200017b6040518060400160405280600581526020017f6f776e657200000000000000000000000000000000000000000000000000000081525060038054620000eb9062000520565b80601f0160208091040260200160405190810160405280929190818152602001828054620001199062000520565b80156200016a5780601f106200013e576101008083540402835291602001916200016a565b820191906000526020600020905b8154815290600101906020018083116200014c57829003601f168201915b50505050506200018960201b60201c565b600060018190555062000a10565b620001996200036e60201b60201c565b60001515600582604051620001af919062000886565b908152602001604051809103902060009054906101000a900460ff1615151462000210576040517f08c379a0000000000000000000000000000000000000000000000000000000008152600401620002079062000900565b60405180910390fd5b60016000815480929190620002259062000951565b919050555060606040518060a001604052806001548152602001848152602001838152602001600081526020018281525060048360405162000268919062000886565b908152602001604051809103902060008201518160000155602082015181600101908162000297919062000731565b506040820151816002019081620002af919062000731565b50606082015181600301556080820151816004019080519060200190620002d8929190620003ca565b509050506001600583604051620002f0919062000886565b908152602001604051809103902060006101000a81548160ff0219169083151502179055508160405162000325919062000886565b60405180910390207f6c266022d98427da88464399d212927d5c4a1ecb555cee32781d5c9e0655509760405160405180910390a2506200036a620003c060201b60201c565b5050565b600260005403620003b6576040517f08c379a0000000000000000000000000000000000000000000000000000000008152600401620003ad90620009ee565b60405180910390fd5b6002600081905550565b6001600081905550565b82805482825590600052602060002090810192821562000417579160200282015b828111156200041657825182908162000405919062000731565b5091602001919060010190620003eb565b5b5090506200042691906200042a565b5090565b5b808211156200044e576000818162000444919062000452565b506001016200042b565b5090565b508054620004609062000520565b6000825580601f1062000474575062000495565b601f01602090049060005260206000209081019062000494919062000498565b5b50565b5b80821115620004b357600081600090555060010162000499565b5090565b600081519050919050565b7f4e487b7100000000000000000000000000000000000000000000000000000000600052604160045260246000fd5b7f4e487b7100000000000000000000000000000000000000000000000000000000600052602260045260246000fd5b600060028204905060018216806200053957607f821691505b6020821081036200054f576200054e620004f1565b5b50919050565b60008190508160005260206000209050919050565b60006020601f8301049050919050565b600082821b905092915050565b600060088302620005b97fffffffffffffffffffffffffffffffffffffffffffffffffffffffffffffffff826200057a565b620005c586836200057a565b95508019841693508086168417925050509392505050565b6000819050919050565b6000819050919050565b6000620006126200060c6200060684620005dd565b620005e7565b620005dd565b9050919050565b6000819050919050565b6200062e83620005f1565b620006466200063d8262000619565b84845462000587565b825550505050565b600090565b6200065d6200064e565b6200066a81848462000623565b505050565b5b8181101562000692576200068660008262000653565b60018101905062000670565b5050565b601f821115620006e157620006ab8162000555565b620006b6846200056a565b81016020851015620006c6578190505b620006de620006d5856200056a565b8301826200066f565b50505b505050565b600082821c905092915050565b60006200070660001984600802620006e6565b1980831691505092915050565b6000620007218383620006f3565b9150826002028217905092915050565b6200073c82620004b7565b67ffffffffffffffff811115620007585762000757620004c2565b5b62000764825462000520565b6200077182828562000696565b600060209050601f831160018114620007a9576000841562000794578287015190505b620007a0858262000713565b86555062000810565b601f198416620007b98662000555565b60005b82811015620007e357848901518255600182019150602085019450602081019050620007bc565b86831015620008035784890151620007ff601f891682620006f3565b8355505b6001600288020188555050505b505050505050565b600081905092915050565b60005b838110156200084357808201518184015260208101905062000826565b60008484015250505050565b60006200085c82620004b7565b62000868818562000818565b93506200087a81856020860162000823565b80840191505092915050565b60006200089482846200084f565b915081905092915050565b600082825260208201905092915050565b7f5573657220416c72656164792045786973747300000000000000000000000000600082015250565b6000620008e86013836200089f565b9150620008f582620008b0565b602082019050919050565b600060208201905081810360008301526200091b81620008d9565b9050919050565b7f4e487b7100000000000000000000000000000000000000000000000000000000600052601160045260246000fd5b60006200095e82620005dd565b91507fffffffffffffffffffffffffffffffffffffffffffffffffffffffffffffffff820362000993576200099262000922565b5b600182019050919050565b7f5265656e7472616e637947756172643a207265656e7472616e742063616c6c00600082015250565b6000620009d6601f836200089f565b9150620009e3826200099e565b602082019050919050565b6000602082019050818103600083015262000a0981620009c7565b9050919050565b61209c8062000a206000396000f3fe6080604052600436106100705760003560e01c8063516b6d071161004e578063516b6d07146100f757806387b162b5146101135780638e27d7191461013c578063e24e83161461016557610070565b8063018533a81461007557806330b39a62146100915780633a51d246146100ba575b600080fd5b61008f600480360381019061008a91906114a5565b6101a3565b005b34801561009d57600080fd5b506100b860048036038101906100b39190611544565b61068e565b005b3480156100c657600080fd5b506100e160048036038101906100dc91906115a0565b61076a565b6040516100ee91906115f8565b60405180910390f35b610111600480360381019061010c9190611613565b610807565b005b34801561011f57600080fd5b5061013a600480360381019061013591906116b2565b610cb6565b005b34801561014857600080fd5b50610163600480360381019061015e9190611544565b610e78565b005b34801561017157600080fd5b5061018c600480360381019061018791906115a0565b610f26565b60405161019a929190611929565b60405180910390f35b6101ab6111e2565b600115156005856040516101bf919061199c565b908152602001604051809103902060009054906101000a900460ff1615151461021d576040517f08c379a000000000000000000000000000000000000000000000000000000000815260040161021490611a10565b60405180910390fd5b8260048560405161022e919061199c565b9081526020016040518091039020600301541015610281576040517f08c379a000000000000000000000000000000000000000000000000000000000815260040161027890611a7c565b60405180910390fd5b82600485604051610292919061199c565b908152602001604051809103902060030160008282546102b29190611acb565b9250508190555082600460036040516102cb9190611bf7565b908152602001604051809103902060030160008282546102eb9190611c0e565b925050819055506000600485604051610304919061199c565b90815260200160405180910390206004018054905090506000805b8281101561041d5784604051602001610338919061199c565b6040516020818303038152906040528051906020012060048860405161035e919061199c565b9081526020016040518091039020600401828154811061038157610380611c42565b5b9060005260206000200160405160200161039b9190611bf7565b60405160208183030381529060405280519060200120036104105760019150836006886040516103cb919061199c565b9081526020016040518091039020866040516103e7919061199c565b908152602001604051809103902060008282546104049190611c0e565b9250508190555061041d565b808060010191505061031f565b50806106265760006001836104329190611c0e565b67ffffffffffffffff81111561044b5761044a611344565b5b60405190808252806020026020018201604052801561047e57816020015b60608152602001906001900390816104695790505b50905060005b8381101561057d5760048860405161049c919061199c565b908152602001604051809103902060040181815481106104bf576104be611c42565b5b9060005260206000200180546104d490611b2e565b80601f016020809104026020016040519081016040528092919081815260200182805461050090611b2e565b801561054d5780601f106105225761010080835404028352916020019161054d565b820191906000526020600020905b81548152906001019060200180831161053057829003601f168201915b505050505082828151811061056557610564611c42565b5b60200260200101819052508080600101915050610484565b508481848151811061059257610591611c42565b5b6020026020010181905250836006886040516105ae919061199c565b9081526020016040518091039020866040516105ca919061199c565b908152602001604051809103902060008282546105e79190611c0e565b92505081905550806004886040516105ff919061199c565b9081526020016040518091039020600401908051906020019061062392919061123b565b50505b85604051610634919061199c565b60405180910390208460405161064a919061199c565b60405180910390207f9a8355253d14b2e278c55c8a768aa8cc07687bab63144bbea0f2c7b3786157d260405160405180910390a35050610688611231565b50505050565b600115156005836040516106a2919061199c565b908152602001604051809103902060009054906101000a900460ff16151514610700576040517f08c379a00000000000000000000000000000000000000000000000000000000081526004016106f790611a10565b60405180910390fd5b80600483604051610711919061199c565b908152602001604051809103902060030154101561072e57600080fd5b8060048360405161073f919061199c565b9081526020016040518091039020600301600082825461075f9190611acb565b925050819055505050565b600060011515600583604051610780919061199c565b908152602001604051809103902060009054906101000a900460ff161515146107de576040517f08c379a00000000000000000000000000000000000000000000000000000000081526004016107d590611a10565b60405180910390fd5b6004826040516107ee919061199c565b9081526020016040518091039020600301549050919050565b61080f6111e2565b60011515600585604051610823919061199c565b908152602001604051809103902060009054906101000a900460ff16151514610881576040517f08c379a000000000000000000000000000000000000000000000000000000000815260040161087890611a10565b60405180910390fd5b81600685604051610892919061199c565b9081526020016040518091039020846040516108ae919061199c565b90815260200160405180910390205410156108fe576040517f08c379a00000000000000000000000000000000000000000000000000000000081526004016108f590611cbd565b60405180910390fd5b80600460036040516109109190611bf7565b908152602001604051809103902060030160008282546109309190611acb565b9250508190555080600485604051610948919061199c565b908152602001604051809103902060030160008282546109689190611c0e565b9250508190555081600685604051610980919061199c565b90815260200160405180910390208460405161099c919061199c565b908152602001604051809103902060008282546109b99190611acb565b9250508190555060006006856040516109d2919061199c565b9081526020016040518091039020846040516109ee919061199c565b90815260200160405180910390205403610c50576000600485604051610a14919061199c565b90815260200160405180910390206004018054905090506000600182610a3a9190611acb565b67ffffffffffffffff811115610a5357610a52611344565b5b604051908082528060200260200182016040528015610a8657816020015b6060815260200190600190039081610a715790505b50905060005b82811015610c165785604051602001610aa5919061199c565b60405160208183030381529060405280519060200120600488604051610acb919061199c565b90815260200160405180910390206004018281548110610aee57610aed611c42565b5b90600052602060002001604051602001610b089190611bf7565b604051602081830303815290604052805190602001200315610c0957600487604051610b34919061199c565b90815260200160405180910390206004018181548110610b5757610b56611c42565b5b906000526020600020018054610b6c90611b2e565b80601f0160208091040260200160405190810160405280929190818152602001828054610b9890611b2e565b8015610be55780601f10610bba57610100808354040283529160200191610be5565b820191906000526020600020905b815481529060010190602001808311610bc857829003601f168201915b5050505050828281518110610bfd57610bfc611c42565b5b60200260200101819052505b8080600101915050610a8c565b5080600487604051610c28919061199c565b90815260200160405180910390206004019080519060200190610c4c92919061123b565b5050505b83604051610c5e919061199c565b604051809103902083604051610c74919061199c565b60405180910390207fdeb732255cff3c9836501088ec7462c5ba57ec30674ba8e3bbd21f02642a648e60405160405180910390a3610cb0611231565b50505050565b610cbe6111e2565b60001515600582604051610cd2919061199c565b908152602001604051809103902060009054906101000a900460ff16151514610d30576040517f08c379a0000000000000000000000000000000000000000000000000000000008152600401610d2790611d29565b60405180910390fd5b60016000815480929190610d4390611d49565b919050555060606040518060a0016040528060015481526020018481526020018381526020016000815260200182815250600483604051610d84919061199c565b9081526020016040518091039020600082015181600001556020820151816001019081610db19190611f28565b506040820151816002019081610dc79190611f28565b50606082015181600301556080820151816004019080519060200190610dee92919061123b565b509050506001600583604051610e04919061199c565b908152602001604051809103902060006101000a81548160ff02191690831515021790555081604051610e37919061199c565b60405180910390207f6c266022d98427da88464399d212927d5c4a1ecb555cee32781d5c9e0655509760405160405180910390a250610e74611231565b5050565b60011515600583604051610e8c919061199c565b908152602001604051809103902060009054906101000a900460ff16151514610eea576040517f08c379a0000000000000000000000000000000000000000000000000000000008152600401610ee190611a10565b60405180910390fd5b80600483604051610efb919061199c565b90815260200160405180910390206003016000828254610f1b9190611c0e565b925050819055505050565b60608060011515600584604051610f3d919061199c565b908152602001604051809103902060009054906101000a900460ff16151514610f9b576040517f08c379a0000000000000000000000000000000000000000000000000000000008152600401610f9290611a10565b60405180910390fd5b6000600484604051610fad919061199c565b908152602001604051809103902060040180549050905060008167ffffffffffffffff811115610fe057610fdf611344565b5b60405190808252806020026020018201604052801561101357816020015b6060815260200190600190039081610ffe5790505b50905060008267ffffffffffffffff81111561103257611031611344565b5b6040519080825280602002602001820160405280156110605781602001602082028036833780820191505090505b50905060005b838110156111d35760048760405161107e919061199c565b908152602001604051809103902060040181815481106110a1576110a0611c42565b5b9060005260206000200180546110b690611b2e565b80601f01602080910402602001604051908101604052809291908181526020018280546110e290611b2e565b801561112f5780601f106111045761010080835404028352916020019161112f565b820191906000526020600020905b81548152906001019060200180831161111257829003601f168201915b505050505083828151811061114757611146611c42565b5b6020026020010181905250600687604051611162919061199c565b908152602001604051809103902083828151811061118357611182611c42565b5b6020026020010151604051611198919061199c565b9081526020016040518091039020548282815181106111ba576111b9611c42565b5b6020026020010181815250508080600101915050611066565b50818194509450505050915091565b600260005403611227576040517f08c379a000000000000000000000000000000000000000000000000000000000815260040161121e90612046565b60405180910390fd5b6002600081905550565b6001600081905550565b828054828255906000526020600020908101928215611283579160200282015b828111156112825782518290816112729190611f28565b509160200191906001019061125b565b5b5090506112909190611294565b5090565b5b808211156112b457600081816112ab91906112b8565b50600101611295565b5090565b5080546112c490611b2e565b6000825580601f106112d657506112f5565b601f0160209004906000526020600020908101906112f491906112f8565b5b50565b5b808211156113115760008160009055506001016112f9565b5090565b6000604051905090565b600080fd5b600080fd5b600080fd5b600080fd5b6000601f19601f8301169050919050565b7f4e487b7100000000000000000000000000000000000000000000000000000000600052604160045260246000fd5b61137c82611333565b810181811067ffffffffffffffff8211171561139b5761139a611344565b5b80604052505050565b60006113ae611315565b90506113ba8282611373565b919050565b600067ffffffffffffffff8211156113da576113d9611344565b5b6113e382611333565b9050602081019050919050565b82818337600083830152505050565b600061141261140d846113bf565b6113a4565b90508281526020810184848401111561142e5761142d61132e565b5b6114398482856113f0565b509392505050565b600082601f83011261145657611455611329565b5b81356114668482602086016113ff565b91505092915050565b6000819050919050565b6114828161146f565b811461148d57600080fd5b50565b60008135905061149f81611479565b92915050565b600080600080608085870312156114bf576114be61131f565b5b600085013567ffffffffffffffff8111156114dd576114dc611324565b5b6114e987828801611441565b94505060206114fa87828801611490565b935050604085013567ffffffffffffffff81111561151b5761151a611324565b5b61152787828801611441565b925050606061153887828801611490565b91505092959194509250565b6000806040838503121561155b5761155a61131f565b5b600083013567ffffffffffffffff81111561157957611578611324565b5b61158585828601611441565b925050602061159685828601611490565b9150509250929050565b6000602082840312156115b6576115b561131f565b5b600082013567ffffffffffffffff8111156115d4576115d3611324565b5b6115e084828501611441565b91505092915050565b6115f28161146f565b82525050565b600060208201905061160d60008301846115e9565b92915050565b6000806000806080858703121561162d5761162c61131f565b5b600085013567ffffffffffffffff81111561164b5761164a611324565b5b61165787828801611441565b945050602085013567ffffffffffffffff81111561167857611677611324565b5b61168487828801611441565b935050604061169587828801611490565b92505060606116a687828801611490565b91505092959194509250565b600080604083850312156116c9576116c861131f565b5b600083013567ffffffffffffffff8111156116e7576116e6611324565b5b6116f385828601611441565b925050602083013567ffffffffffffffff81111561171457611713611324565b5b61172085828601611441565b9150509250929050565b600081519050919050565b600082825260208201905092915050565b6000819050602082019050919050565b600081519050919050565b600082825260208201905092915050565b60005b83811015611790578082015181840152602081019050611775565b60008484015250505050565b60006117a782611756565b6117b18185611761565b93506117c1818560208601611772565b6117ca81611333565b840191505092915050565b60006117e1838361179c565b905092915050565b6000602082019050919050565b60006118018261172a565b61180b8185611735565b93508360208202850161181d85611746565b8060005b85811015611859578484038952815161183a85826117d5565b9450611845836117e9565b925060208a01995050600181019050611821565b50829750879550505050505092915050565b600081519050919050565b600082825260208201905092915050565b6000819050602082019050919050565b6118a08161146f565b82525050565b60006118b28383611897565b60208301905092915050565b6000602082019050919050565b60006118d68261186b565b6118e08185611876565b93506118eb83611887565b8060005b8381101561191c57815161190388826118a6565b975061190e836118be565b9250506001810190506118ef565b5085935050505092915050565b6000604082019050818103600083015261194381856117f6565b9050818103602083015261195781846118cb565b90509392505050565b600081905092915050565b600061197682611756565b6119808185611960565b9350611990818560208601611772565b80840191505092915050565b60006119a8828461196b565b915081905092915050565b600082825260208201905092915050565b7f5573657220646f6e277420657869737473000000000000000000000000000000600082015250565b60006119fa6011836119b3565b9150611a05826119c4565b602082019050919050565b60006020820190508181036000830152611a29816119ed565b9050919050565b7f446f6e2774206861766520656e6f7567682062616c616e636500000000000000600082015250565b6000611a666019836119b3565b9150611a7182611a30565b602082019050919050565b60006020820190508181036000830152611a9581611a59565b9050919050565b7f4e487b7100000000000000000000000000000000000000000000000000000000600052601160045260246000fd5b6000611ad68261146f565b9150611ae18361146f565b9250828203905081811115611af957611af8611a9c565b5b92915050565b7f4e487b7100000000000000000000000000000000000000000000000000000000600052602260045260246000fd5b60006002820490506001821680611b4657607f821691505b602082108103611b5957611b58611aff565b5b50919050565b60008190508160005260206000209050919050565b60008154611b8181611b2e565b611b8b8186611960565b94506001821660008114611ba65760018114611bbb57611bee565b60ff1983168652811515820286019350611bee565b611bc485611b5f565b60005b83811015611be657815481890152600182019150602081019050611bc7565b838801955050505b50505092915050565b6000611c038284611b74565b915081905092915050565b6000611c198261146f565b9150611c248361146f565b9250828201905080821115611c3c57611c3b611a9c565b5b92915050565b7f4e487b7100000000000000000000000000000000000000000000000000000000600052603260045260246000fd5b7f557365722073686f756c642068617665207468617420636f696e000000000000600082015250565b6000611ca7601a836119b3565b9150611cb282611c71565b602082019050919050565b60006020820190508181036000830152611cd681611c9a565b9050919050565b7f5573657220416c72656164792045786973747300000000000000000000000000600082015250565b6000611d136013836119b3565b9150611d1e82611cdd565b602082019050919050565b60006020820190508181036000830152611d4281611d06565b9050919050565b6000611d548261146f565b91507fffffffffffffffffffffffffffffffffffffffffffffffffffffffffffffffff8203611d8657611d85611a9c565b5b600182019050919050565b60006020601f8301049050919050565b600082821b905092915050565b600060088302611dde7fffffffffffffffffffffffffffffffffffffffffffffffffffffffffffffffff82611da1565b611de88683611da1565b95508019841693508086168417925050509392505050565b6000819050919050565b6000611e25611e20611e1b8461146f565b611e00565b61146f565b9050919050565b6000819050919050565b611e3f83611e0a565b611e53611e4b82611e2c565b848454611dae565b825550505050565b600090565b611e68611e5b565b611e73818484611e36565b505050565b5b81811015611e9757611e8c600082611e60565b600181019050611e79565b5050565b601f821115611edc57611ead81611b5f565b611eb684611d91565b81016020851015611ec5578190505b611ed9611ed185611d91565b830182611e78565b50505b505050565b600082821c905092915050565b6000611eff60001984600802611ee1565b1980831691505092915050565b6000611f188383611eee565b9150826002028217905092915050565b611f3182611756565b67ffffffffffffffff811115611f4a57611f49611344565b5b611f548254611b2e565b611f5f828285611e9b565b600060209050601f831160018114611f925760008415611f80578287015190505b611f8a8582611f0c565b865550611ff2565b601f198416611fa086611b5f565b60005b82811015611fc857848901518255600182019150602085019450602081019050611fa3565b86831015611fe55784890151611fe1601f891682611eee565b8355505b6001600288020188555050505b505050505050565b7f5265656e7472616e637947756172643a207265656e7472616e742063616c6c00600082015250565b6000612030601f836119b3565b915061203b82611ffa565b602082019050919050565b6000602082019050818103600083015261205f81612023565b905091905056fea2646970667358221220af223b8c15adcd94c6988a4fb74e0a8b832916cd236e81e307fcda55bf5d798864736f6c63430008180033",
  "linkReferences": {},
  "deployedLinkReferences": {}
}